:100000000C94F4000C9411010C9411010C94110146
:100010000C9411010C9411010C9411010C94110118
:100020000C9411010C9411010C942B040C94650494
:100030000C9411010C9411010C9411010C941101F8
:100040000C9411010C9411010C9411010C941101E8
:100050000C9411010C9411010C9411010C941101D8
:100060000C9411010C9411010C9411010C941101C8
:100070000C9411010C9411010C9411010C941101B8
:100080000C9411010C9411010C9411010C941101A8
:100090000C9411010C9411010C9411010C94110198
:1000A0000C9411010C9411010C941101CC03C9039F
:1000B000C603C303C003BD03BA03B703B403B1034C
:1000C000AE03AB03A803A503A2039F039C039903FC
:1000D0009603930390038D038A03870384038103AC
:1000E0007E037B037803750372036F036C0369035C
:1000F0006603630360035D035A035703540351030C
:100100004E034B034803450342033F033C033903BB
:100110003603330330032D032A032703240321036B
:100120001E031B031803150312030F030C03737440
:100130006172740A000001000069011200020000EF
:100140007B014300030000BE010401030904C20156
:100150001202030904D6010603030904DE010800A4
:1001600001C1120180360181361201000202000035
:1001700010C0167A040001010203010902430002C3
:100180000100C03209040000010202010005240040
:1001900010010524010101042402060524060001C2
:1001A0000705820310004009040100020A00000054
:1001B0000705030240000007058402400000040315
:1001C000090412034A002E00200046006900650061
:1001D0006E006500000006034D00320000000803B9
:1001E000340031003000000011241FBECFEFDAE0F0
:1001F000DEBFCDBF11E0A0E0B1E0E4E9F2E102C072
:1002000005900D92A830B107D9F711E0A8E0B1E050
:1002100001C01D92AE31B107E1F70E9413010C94A9
:1002200048090C9400000F931F93DF93CF930F9214
:10023000CDB7DEB76E9A76986A9A72980E945A0184
:1002400081E061E00E94DD060E9403020E941C0220
:100250008823E1F38EE291E00E94CD056E9A769AB2
:100260006A9A729A6E9A76986A9A729A88E091E07F
:100270000E9446076E9A769A6A9A72980E943A028B
:100280008823E1F30E941F0289830E944902898129
:10029000813041F708E011E0F80180810E5F1F4FC7
:1002A0000E945C02F1E00A311F07B1F78AE00E9468
:1002B0005C02D8CF589A599A5A9A8CE08093B80029
:1002C000E9E6F0E080818062808380818F7E808398
:1002D000EA9A7894089584E88093BC008091BC00E9
:1002E00087FFFCCF8091BB00089584E98093BC0018
:1002F000089520E030E08091BC0087FD06C02F5FAC
:100300003F4F83E0293E3807B1F781E093E0283E74
:10031000390709F480E008958093BB0084E8809356
:10032000BC000E947901882321F08091B900887F68
:10033000089580E008951F93DF93CF930F92CDB778
:10034000DEB7182F84EA8093BC0069830E9479018C
:100350006981882371F0812F880F662331F08F5FC8
:100360000E948C01883451F404C00E948C018032B8
:1003700029F484E98093BC0080E001C081E00F9003
:10038000CF91DF911F910895CF93DF93C62FD42F84
:1003900060E00E949B01882379F08C2F0E948C01E1
:1003A000882351F08D2F0E948C01882329F084E945
:1003B0008093BC0081E001C080E0DF91CF9108957F
:1003C000CF93DF93C82FD62F60E00E949B01882334
:1003D00089F08D2F0E948C01882361F084E980933D
:1003E000BC008C2F61E00E949B01882319F00E94C1
:1003F0006B0101C080E0DF91CF9108958091E8000A
:1004000080FFFCCF089581E08093D70080EA80933D
:10041000D80082E189BD09B400FEFDCF80E9809358
:10042000D8001092E00010921A0110921B018CE08B
:100430008093E2007894089580911A0108959FB7FF
:10044000F89480911A01882339F083E08093E900C1
:100450008091E80085FD03C09FBF8FEF08958091D4
:10046000F1002091E80025FD03C02BE62093E80071
:100470009FBF08959FB7F89480911A01882331F0A7
:1004800083E08093E9008091F20001C080E09FBF8B
:10049000089580911A01882371F08FB7F89493E042
:1004A0009093E9009BE602C09093E8002091E80059
:1004B00025FDFACF8FBF089590911A019923D1F1AC
:1004C0009FB7F89424E02093E90020911D01222396
:1004D00041F02091E80025FD02C09FBF2BC0109283
:1004E0001D012091E400275E34E04091E80045FDC5
:1004F00012C09FBF9091E400921721F481E0809395
:100500001D0118C090911A019923B1F09FB7F8947A
:100510003093E900EACF8093F1008091E80085FDF7
:1005200003C08AE38093E80085E080931C019FBFAD
:1005300080E008958FEF08958FEF089590911A014C
:100540009923D9F09FB7F89424E02093E9002091F3
:10055000E80025FD03C09FBF8FEF08958093F10051
:100560008091E80085FD03C08AE38093E80085E080
:1005700080931C019FBF80E008958FEF0895CF9373
:10058000DC0180911A01882309F41AC12FB7F8946D
:1005900084E08093E90080911D01882309F405C15E
:1005A0008091E80085FD02C02FBF0AC110921D0195
:1005B000FCC08091E400875E9091E80095FD13C037
:1005C0002FBF9091E400981721F481E080931D01E2
:1005D000F7C090911A01992309F4F2C02FB7F8944B
:1005E000C093E900E9CF8091F200E52FE81B8E2F40
:1005F00090E06817790708F4E62F6E1B7109F0E0A8
:10060000E134F10508F0C5C0EA5AFF4FEE0FFF1FB5
:100610000590F491E02D09948D918093F1008D91D6
:100620008093F1008D918093F1008D918093F10082
:100630008D918093F1008D918093F1008D91809345
:10064000F1008D918093F1008D918093F1008D9157
:100650008093F1008D918093F1008D918093F10052
:100660008D918093F1008D918093F1008D91809315
:10067000F1008D918093F1008D918093F1008D9127
:100680008093F1008D918093F1008D918093F10022
:100690008D918093F1008D918093F1008D918093E5
:1006A000F1008D918093F1008D918093F1008D91F7
:1006B0008093F1008D918093F1008D918093F100F2
:1006C0008D918093F1008D918093F1008D918093B5
:1006D000F1008D918093F1008D918093F1008D91C7
:1006E0008093F1008D918093F1008D918093F100C2
:1006F0008D918093F1008D918093F1008D91809385
:10070000F1008D918093F1008D918093F1008D9196
:100710008093F1008D918093F1008D918093F10091
:100720008D918093F1008D918093F1008D91809354
:10073000F1008D918093F1008D918093F1008D9166
:100740008093F1008D918093F1008D918093F10061
:100750008D918093F1008D918093F1008D91809324
:10076000F1008D918093F1008D918093F1008D9136
:100770008093F1008D918093F1008D918093F10031
:100780008D918093F1008D918093F1008D918093F4
:10079000F1008D918093F1008091E80085FD02C009
:1007A0004093E80030931C0104C0C4E050E44AE3E5
:1007B00035E06115710509F0FCCE2FBF80E001C066
:1007C0008FEFCF9108958FB7F89490911C019923E2
:1007D00041F094E09093E9009AE39093E80010923E
:1007E0001C018FBF08958091040108958091050137
:1007F000089580910601089580911B0108959FB787
:10080000F89420911A01222339F022E02093E90084
:100810003091E80035FD03C09FBF8FEF089531EAA6
:100820003093F10030E23093F1001092F100109219
:10083000F1001092F1001092F1002093F10010925B
:10084000F1008093F1001092F1008AE38093E800B8
:100850009FBF80E008951F920F920FB60F92112450
:100860008F939F938091E1001092E10083FF11C06C
:100870001092E90091E09093EB001092EC0092E16D
:100880009093ED0098E09093F00010921A0110926E
:100890001B0182FF13C080911A01882379F0809197
:1008A0001C01882359F0815080931C01882331F466
:1008B00084E08093E9008AE38093E8009F918F9120
:1008C0000F900FBE0F901F9018951F920F920FB6AA
:1008D0000F921124EF92FF920F931F932F933F9348
:1008E0004F935F936F937F938F939F93AF93BF9338
:1008F000EF93FF93DF93CF930F92CDB7DEB71092B4
:10090000E9008091E80083FF2DC12091F100309132
:10091000F100E090F100FF244091F100942F80E07D
:10092000E82AF92A0091F10010E04091F100942F9B
:1009300080E0082B192B6091F100A091F10082EF6B
:100940008093E800363009F059C08CE391E09C01B7
:1009500025503040FC013797459154914E155F0565
:10096000F9F4F9014591549140175107C9F42E5FEC
:100970003F4FF901859194912E5F3F4FF9012491EA
:10098000462F50E07A2F60E0462B572B4F3F510502
:1009900019F010F04FEF50E0421750F4242F08C028
:1009A0000796295F3F4FF1E086369F0799F6DAC038
:1009B000AEEF4091E80050E0BA01657070706115CB
:1009C0007105B9F342FDD1C0322F213108F030E179
:1009D000AC01632F07C0FA014F5F5F4FE491E093D2
:1009E000F10061506623B9F7830F911D231BA0937B
:1009F000E8002223F1F63031E1F2B7C0353051F48E
:100A00008EEF8093E8000E94FE018E2D8068809317
:100A1000E300ABC0393051F5222309F0A3C0E092C6
:100A20001A0110921B0110921C018EEF8093E800B6
:100A300041E08FE591E04093E900FC010196E491EB
:100A4000E093EB00EE2369F09C012F5F3F4FFC0128
:100A500084918093EC00C9010196F90124912093BF
:100A6000ED004F5F453039F78EE177C0383051F4F3
:100A7000203809F077C00E94FE0180911A0180930E
:100A8000F10048C0313279F4213A09F06BC00E947C
:100A9000FE01E0E0F1E081918093F10041E0E73078
:100AA000F407C9F737C03032A1F4213209F05AC037
:100AB0008091E80082FFFCCFE0E0F1E08091F1005E
:100AC000819381E0E730F807C9F78BEF8093E80066
:100AD00021C0323241F4213209F044C0E0921B01BE
:100AE0000E94FE0117C03323C9F429830E94FE012E
:100AF0002981223851F40093E9009091EB0081E0C4
:100B000095FF80E01092E90001C080E08093F10041
:100B10001092F1008EEF8093E80027C0313011F081
:100B2000333001F52230F1F4E114F104D9F40F77F8
:100B3000802F81508430B0F48EEF8093E8000093D2
:100B4000E900333079F089E18093EB0081E090E0B7
:100B500002C0880F991F0A95E2F78093EA0010926D
:100B6000EA0003C081E28093EB000F90CF91DF9108
:100B7000FF91EF91BF91AF919F918F917F916F9175
:100B80005F914F913F912F911F910F91FF90EF90A7
:100B90000F900FBE0F901F9018951F93CF93DF9368
:100BA000EC01FE0121961491112349F01A3019F439
:100BB0008DE00E945C02812F0E945C02F2CFDF91E7
:100BC000CF911F9108958A3010F490E301C097E30C
:100BD000890F0E945C020895CF93C82F82958F7071
:100BE0000E94E3058C2F8F700E94E305CF9108953A
:100BF000CF93C82F892F0E94EC058C2F0E94EC0503
:100C0000CF9108950E94EC050895EF92FF920F9303
:100C10001F93DF93CF93CDB7DEB727970FB6F89426
:100C2000DEBF0FBECDBF8E010F5F1F4F27E0F80163
:100C300011922A95E9F7B8014AE050E00E94720843
:100C400088E0E82EF12CEC0EFD1EF80181918F0159
:100C5000882311F00E945C020E151F05B1F727963C
:100C60000FB6F894DEBF0FBECDBFCF91DF911F91BD
:100C70000F91FF90EF900895EF92FF920F931F93C3
:100C8000DF93CF9300D000D00F92CDB7DEB78E01A7
:100C90000F5F1F4F25E0F80111922A95E9F7B8017F
:100CA0004AE050E00E94EC0896E0E92EF12CEC0EB0
:100CB000FD1EF80181918F01882311F00E945C02D2
:100CC0000E151F05B1F70F900F900F900F900F901A
:100CD000CF91DF911F910F91FF90EF900895EF92C8
:100CE000FF920F931F93DF93CF93CDB7DEB72B9770
:100CF0000FB6F894DEBF0FBECDBF8E010F5F1F4F42
:100D00002BE0F80111922A95E9F7A8012AE030E0DA
:100D10000E9493082CE0E22EF12CEC0EFD1EF8014F
:100D200081918F01882311F00E945C020E151F052E
:100D3000B1F72B960FB6F894DEBF0FBECDBFCF91A3
:100D4000DF911F910F91FF90EF900895EF92FF9226
:100D50000F931F93DF93CF93CDB7DEB72A970FB6CC
:100D6000F894DEBF0FBECDBF8E010F5F1F4F2AE08C
:100D7000F80111922A95E9F7A8012AE030E00E94D3
:100D8000C7083BE0E32EF12CEC0EFD1EF80181912B
:100D90008F01882311F00E945C020E151F05B1F728
:100DA0002A960FB6F894DEBF0FBECDBFCF91DF916C
:100DB0001F910F91FF90EF900895CF93DF93D82F5D
:100DC000C62F843008F05EC0643008F05BC00E941B
:100DD0005A018FEF95EAAEE081509040A040E1F7D4
:100DE00000C0000089E665E70E94E001883609F04E
:100DF00049C089E66BE641E00E94C4014D2F440FD3
:100E0000440F440F89E66CE10E94C4014C2F440F4B
:100E1000440F440F89E66BE10E94C40189E667E351
:100E200042E00E94C4018EE162E040E00E94C40101
:100E300089E667E340E00E94C40189E664E34EE18D
:100E40000E94C40189E667E641E00E94C40189E688
:100E500064E24DE10E94C40189E665E24EE90E9428
:100E6000C40189E666E243E00E94C40189E667E2C4
:100E700046E90E94C40189E66AE640E20E94C40194
:100E800081E001C080E0DF91CF910895EF92FF9261
:100E90000F931F93DF93CF93CDB7DEB765970FB650
:100EA000F894DEBF0FBECDBF8C017E010894E11C1B
:100EB000F11C9EE489E6692F9D8B0E94E001D70119
:100EC0008D937D019D8991509A33A1F7FE01319652
:100ED00086859785D80115969C938E931497868165
:100EE00097811B969C938E931A9789819A8151962C
:100EF0009C938E9350978089918913969C938E939F
:100F000012978085918519969C938E93189782816C
:100F100093811F969C938E931E9782899389119635
:100F20009C938E938285938517969C938E931697A8
:100F3000848195811D969C938E931C9781E0659684
:100F40000FB6F894DEBF0FBECDBFCF91DF911F91DA
:100F50000F91FF90EF900895EF92FF920F931F93E0
:100F6000DF93CF93CDB7DEB727970FB6F894DEBFE8
:100F70000FBECDBF8C017E010894E11CF11C90E4F2
:100F800089E6692F9F830E94E001D7018D937D013F
:100F90009F8191509A33A1F7FE01319689819A8100
:100FA000D80115969C938E93149782819381139602
:100FB0009C938E9312978481958111969C938E9326
:100FC00081E027960FB6F894DEBF0FBECDBFCF915C
:100FD000DF911F910F91FF90EF900895EF92FF9294
:100FE0000F931F93DF93CF93CDB7DEB727970FB63D
:100FF000F894DEBF0FBECDBF8C017E010894E11CCA
:10100000F11C98E489E6692F9F830E94E001D701D3
:101010008D937D019F8191509234A1F7FE0131960D
:1010200089819A81D80115969C938E931497828119
:10103000938113969C938E93129784819581119638
:101040009C938E9381E027960FB6F894DEBF0FBE77
:10105000CDBFCF91DF911F910F91FF90EF90089539
:10106000EF92FF920F931F93DF93CF93CDB7DEB72D
:1010700027970FB6F894DEBF0FBECDBF8C017E015F
:101080000894E11CF11C9EE489E6692F9F830E946D
:10109000E001D7018D937D019F8191509834A1F794
:1010A000FE01319689819A81D80115969C938E9381
:1010B00014978281938113969C938E9312978481C7
:1010C000958111969C938E9381E027960FB6F894A4
:1010D000DEBF0FBECDBFCF91DF911F910F91FF906B
:1010E000EF900895FB019F01E8944230C4F045322F
:1010F000B4F44A3029F497FB1EF4909581959F4FE4
:10110000642F77270E941209805D8A330CF0895D75
:101110008193CB010097A1F716F45DE25193108201
:10112000C9010C940209FA01CF93FF93EF93223087
:1011300044F1253234F5C22FE894CA3049F497FBC4
:101140003EF490958095709561957F4F8F4F9F4F9E
:101150002C2F332744275527FF93EF930E9426090E
:10116000EF91FF91605D6A330CF0695D6193B901A5
:10117000CA01605070408040904051F716F4CDE2B3
:10118000C19310828F919F91CF910C940209FA0123
:10119000CF93FF93EF932230CCF02532BCF4C22FD3
:1011A0002C2F332744275527FF93EF930E942609BE
:1011B000EF91FF91605D6A330CF0695D6193B90155
:1011C000CA01605070408040904051F710828F916A
:1011D0009F91CF910C940209FB019F01423074F062
:1011E000453264F4642F77270E941209805D8A33A8
:1011F0000CF0895D8193CB010097A1F71082C901A2
:101200000C940209DC01FC01672F71917723E1F74F
:10121000329704C07C916D9370836291AE17BF07C3
:10122000C8F30895AA1BBB1B51E107C0AA1FBB1F2F
:10123000A617B70710F0A61BB70B881F991F5A9562
:10124000A9F780959095BC01CD010895A1E21A2ED1
:10125000AA1BBB1BFD010DC0AA1FBB1FEE1FFF1F5A
:10126000A217B307E407F50720F0A21BB30BE40BAA
:10127000F50B661F771F881F991F1A9469F76095F1
:101280007095809590959B01AC01BD01CF010895AB
:04129000F894FFCF00
:0812940000E100000000080069
:00000001FF
