:100000000C944A010C9467010C9467010C946701ED
:100010000C9467010C9467010C9467010C946701C0
:100020000C9467010C949F020C94F2050C942C061E
:100030000C9467010C9467010C9467010C946701A0
:100040000C9467010C9467010C9467010C94670190
:100050000C9467010C94B6020C9467010C94670130
:100060000C9467010C9467010C9467010C94670170
:100070000C9467010C9467010C9467010C94670160
:100080000C9467010C9467010C9467010C94670150
:100090000C9467010C9467010C9467010C94670140
:1000A0000C9467010C9467010C946701930590050B
:1000B0008D058A058705840581057E057B05780504
:1000C000750572056F056C056905660563056005B4
:1000D0005D055A055705540551054E054B05480564
:1000E000450542053F053C05390536053305300514
:1000F0002D052A052705240521051E051B051805C4
:10010000150512050F050C05090506050305000573
:10011000FD04FA04F704F404F104EE04EB04E8042B
:10012000E504E204DF04DC04D904D604D304730933
:10013000760927092709790982098B099509610937
:1001400067096A09350938093B0929092C092F096A
:1001500032093E0947094A09500958096409410909
:1001600044097009320A390A5D0A5D0A400A470AE1
:100170004E0A550A0D0A1B0A220AC509CC09D309E1
:10018000AB09B009B709BE09DA09F109F809FF0995
:10019000060A140AE209E9092A0A706F745F737487
:1001A0006174653A20000D0A00795F6465736972B5
:1001B00065643A20000D0A006572726F723A200081
:1001C0000D0A00795F61637475616C3A20000D0A55
:1001D00000647574795F6379636C653A20000D0A79
:1001E0000000010000150212000200002702430077
:1001F0000300006A0204010309046E0212020309EB
:1002000004820206030309048A02080001C11201E4
:1002100080360181361201000202000010C0167AF9
:100220000400010102030109024300020100C0327F
:100230000904000001020201000524001001052448
:1002400001010104240206052406000107058203BA
:1002500010004009040100020A0000000705030223
:100260004000000705840240000004030904120353
:100270004A002E0020004600690065006E006500FF
:10028000000006034D003200000008033400310076
:100290003000000011241FBECFEFDAE0DEBFCDBF7B
:1002A00011E0A0E0B1E0ECE1F8E202C005900D92AF
:1002B000A830B107D9F711E0A8E0B1E001C01D9264
:1002C000A932B107E1F70E9461100C940C140C9450
:1002D00000004F925F926F927F928F929F92AF92A7
:1002E000BF92CF92DF92EF92FF920F931F93CF9323
:1002F000DF932A013B010E9437038901D42FC52FC8
:10030000F62EE72ED82EC92E89EA91E00E948D079D
:10031000C301B2010E94AE11DC01CB010E94C507EE
:1003200085EB91E00E948D076091080170910901B1
:10033000882777FD8095982F0E94E11120E030E01A
:1003400040E85DE30E94D3124B015C0198014D2F00
:100350005C2F6F2D7E2D8D2D9C2D0E941C1220E078
:1003600034E244E759E40E9446119B01AC01C50107
:10037000B4010E944611462F572F682F792FCB01C9
:10038000BA0120E030E040E85EE30E94D312D62FAD
:10039000C72FD82EC92EC301B201FE01A6010F2F0F
:1003A0001E2F252F342FA90198010E94DD107B01FB
:1003B0008C0188EB91E00E948D078E2D9F2DA02F40
:1003C000B12FBC01CD010E94AE11DC01CB010E9416
:1003D000C50780EC91E00E948D0783EC91E00E94BC
:1003E0008D07AE019601852F942FA32FB22FBC014C
:1003F000CD010E94AE11DC01CB010E94C5078EEC3D
:1004000091E00E948D07C301B2012BEA3AEA46EA65
:1004100052E40E944611D62FC72FD82EC92E8E2DFA
:100420009F2DA02FB12FBC01CD012BEA3AEA46EA5D
:1004300052E40E944611162F072FB82EA92EAE01A6
:100440009601852F942FA32FB22FBC01CD0120E060
:1004500030E048EC52E40E94D3126B017C01A80109
:100460009501852F942FA32FB22FBC01CD0120E041
:1004700030E048EC52E40E94D3129B01AC01C7016A
:10048000B6010E94DE108B01D82FC92F9E01862F46
:10049000912FA32FB22FBC01CD0120E030E048EC1A
:1004A00052E40E94CF12181624F400E010E0D8ECB9
:1004B000C2E49E01802F912FA32FBC2FBC01CD0140
:1004C00020E030E0A9010E94421187FF04C000E053
:1004D00010E0D0E0C0E081ED91E00E948D079E0128
:1004E000802F912FA32FBC2FBC01CD010E94AE11F4
:1004F000DC01CB010E94C5078EED91E00E948D07C3
:10050000109209011092080181E061E02D2F3C2F2B
:10051000A90198010E94730E0E94B203DF91CF914E
:100520001F910F91FF90EF90DF90CF90BF90AF9011
:100530009F908F907F906F905F904F9008951F9243
:100540000F920FB60F9211248F939F938091080101
:1005500090910901019690930901809308019F9160
:100560008F910F900FBE0F901F9018951F920F92B2
:100570000FB60F9211242F933F934F935F936F9376
:100580007F938F939F93AF93EF93FF9340910A01D3
:1005900030910B0120910C0190910D0180910E0181
:1005A000F0910F01E0911001A0911101642F6F5F94
:1005B00051E0641708F050E0530F41E0531708F082
:1005C00040E0420F31E0421708F030E0390F21E0FF
:1005D000391708F020E0280F91E0281708F090E084
:1005E0009F0F81E09F1708F080E08E0F71E08E175B
:1005F00008F070E07A0F60930A0150930B0140936A
:100600000C0130930D0120930E0190930F01809304
:10061000100170931101FF91EF91AF919F918F9114
:100620007F916F915F914F913F912F910F900FBEEE
:100630000F901F90189582E084BD93E095BD809344
:100640006E0080E287BD0895F89420910A013091F0
:100650000B0140910C0150910D0160910E017091C0
:100660000F018091100190911101789408950F93DA
:100670000E94240307E00E94E70F0F910895CF9294
:10068000DF92EF92FF920F931F93CF93DF93790145
:100690008A01D62FC72FD82EC92E0E942403B22F2D
:1006A000BE19E1E02B1708F0E0E0232F2F19F1E04D
:1006B000321708F0F0E0322F3E1BE1E0231708F07C
:1006C000E0E0FE2B242F201BE1E0421708F0E0E0E1
:1006D000422F4F1BF1E0241708F0F0E0EF2B252FFD
:1006E000211BF1E0521708F0F0E0522F5E1BE1E011
:1006F000251708F0E0E0FE2B262F2D1BE1E0621706
:1007000008F0E0E0622F6F1BF1E0261708F0F0E040
:10071000EF2B272F2C1BF1E0721708F0F0E0722F5F
:100720007E1BE1E0271708F0E0E0FE2BA82FAD19B3
:10073000E1E08A1708F0E0E08A2F8F1B21E0A8177C
:1007400008F020E0E22B9C192B2F9E1B07E00E9453
:10075000E70FDF91CF911F910F91FF90EF90DF9006
:10076000CF900895F89410920A0110920B01109204
:100770000C0110920D0110920E0110920F011092B7
:10078000100110921101789408958091E80080FF83
:10079000FCCF089581E08093D70080EA8093D80051
:1007A00082E189BD09B400FEFDCF80E98093D800C5
:1007B0001092E00010921301109214018CE08093CB
:1007C000E200789408958091130108959FB7F894FA
:1007D00080911301882339F083E08093E9008091B0
:1007E000E80085FD03C09FBF8FEF08958091F10061
:1007F0002091E80025FD03C02BE62093E8009FBF71
:1008000008959FB7F89480911301882331F083E015
:100810008093E9008091F20001C080E09FBF0895BD
:1008200080911301882371F08FB7F89493E090932F
:10083000E9009BE602C09093E8002091E80025FDC6
:10084000FACF8FBF0895909113019923D1F19FB7EB
:10085000F89424E02093E90020911501222341F02F
:100860002091E80025FD02C09FBF2BC0109215010A
:100870002091E400275E34E04091E80045FD12C07D
:100880009FBF9091E400921721F481E080931501BD
:1008900018C0909113019923B1F09FB7F894309349
:1008A000E900EACF8093F1008091E80085FD03C064
:1008B0008AE38093E80085E0809312019FBF80E087
:1008C00008958FEF08958FEF089590911301992364
:1008D000D9F09FB7F89424E02093E9002091E80034
:1008E00025FD03C09FBF8FEF08958093F100809195
:1008F000E80085FD03C08AE38093E80085E08093EB
:1009000012019FBF80E008958FEF0895CF93DC011F
:1009100080911301882309F41AC12FB7F89484E059
:100920008093E90080911501882309F405C1809125
:10093000E80085FD02C02FBF0AC110921501FCC05E
:100940008091E400875E9091E80095FD13C02FBF71
:100950009091E400981721F481E080931501F7C08D
:1009600090911301992309F4F2C02FB7F894C09322
:10097000E900E9CF8091F200E52FE81B8E2F90E08F
:100980006817790708F4E62F6E1B7109F0E0E1346F
:10099000F10508F0C5C0EA5AFF4FEE0FFF1F0590A2
:1009A000F491E02D09948D918093F1008D918093C5
:1009B000F1008D918093F1008D918093F1008D91E4
:1009C0008093F1008D918093F1008D918093F100DF
:1009D0008D918093F1008D918093F1008D918093A2
:1009E000F1008D918093F1008D918093F1008D91B4
:1009F0008093F1008D918093F1008D918093F100AF
:100A00008D918093F1008D918093F1008D91809371
:100A1000F1008D918093F1008D918093F1008D9183
:100A20008093F1008D918093F1008D918093F1007E
:100A30008D918093F1008D918093F1008D91809341
:100A4000F1008D918093F1008D918093F1008D9153
:100A50008093F1008D918093F1008D918093F1004E
:100A60008D918093F1008D918093F1008D91809311
:100A7000F1008D918093F1008D918093F1008D9123
:100A80008093F1008D918093F1008D918093F1001E
:100A90008D918093F1008D918093F1008D918093E1
:100AA000F1008D918093F1008D918093F1008D91F3
:100AB0008093F1008D918093F1008D918093F100EE
:100AC0008D918093F1008D918093F1008D918093B1
:100AD000F1008D918093F1008D918093F1008D91C3
:100AE0008093F1008D918093F1008D918093F100BE
:100AF0008D918093F1008D918093F1008D91809381
:100B0000F1008D918093F1008D918093F1008D9192
:100B10008093F1008D918093F1008D918093F1008D
:100B20008D918093F1008091E80085FD02C0409393
:100B3000E8003093120104C0C4E050E44AE335E019
:100B40006115710509F0FCCE2FBF80E001C08FEF69
:100B5000CF9108958FB7F89490911201992341F0A5
:100B600094E09093E9009AE39093E80010921201C8
:100B70008FBF089580910401089580910501089523
:100B80008091060108958091140108959FB7F8940B
:100B900020911301222339F022E02093E9003091C3
:100BA000E80035FD03C09FBF8FEF089531EA309311
:100BB000F10030E23093F1001092F1001092F10058
:100BC0001092F1001092F1002093F1001092F100C8
:100BD0008093F1001092F1008AE38093E8009FBFB8
:100BE00080E008951F920F920FB60F9211248F93F9
:100BF0009F938091E1001092E10083FF11C0109259
:100C0000E90091E09093EB001092EC0092E1909358
:100C1000ED0098E09093F0001092130110921401EF
:100C200082FF13C080911301882379F08091120113
:100C3000882359F0815080931201882331F484E095
:100C40008093E9008AE38093E8009F918F910F9051
:100C50000FBE0F901F9018951F920F920FB60F9214
:100C60001124EF92FF920F931F932F933F934F9373
:100C70005F936F937F938F939F93AF93BF93EF9304
:100C8000FF93CF93DF930F92CDB7DEB71092E900B9
:100C90008091E80083FF26C12091F1003091F1009E
:100CA000E090F100FF244091F100942F80E0E82AC9
:100CB000F92A0091F10010E04091F100942F80E0BA
:100CC000082B192B6091F100A091F10082EF809325
:100CD000E800363009F051C046E021EE31E0F9017C
:100CE000859194918E159F0539F4F901329685917D
:100CF00094918017910729F0295F3F4F415079F770
:100D0000F1C0F901349685919491AC012A5F3F4F6F
:100D1000F901249170E09A2F80E0682B792B6F3FC6
:100D2000710519F010F06FEF70E0621708F4262FCC
:100D3000AEEF8091E80090E0BC01657070706115C5
:100D40007105B9F382FDD1C0322F213108F030E1B5
:100D5000CA01632F06C0FC010196E491E093F10003
:100D600061506623C1F7430F511D231BA093E80078
:100D70002223F9F63031E9F2B8C0353051F48EEF64
:100D80008093E8000E94C5038E2D80688093E30065
:100D9000ACC0393069F5222309F0A4C0E0921301F8
:100DA00010921401109212018EEF8093E80041E03E
:100DB0008BE092E001C0C9014093E9009C012F5FE4
:100DC0003F4FFC0154915093EB00552361F0F90122
:100DD00024912093EC009C012D5F3F4F0296FC0173
:100DE00084918093ED004F5F453029F78EE175C007
:100DF000383051F4203809F075C00E94C503809145
:100E000013018093F10046C0313271F4213A09F0A8
:100E100069C00E94C50387E0E0E0F1E09191909302
:100E2000F1008150D9F736C0303299F4213209F0FF
:100E300059C08091E80082FFFCCF87E0E0E0F1E05C
:100E40009091F10091938150D9F78BEF8093E80056
:100E500021C0323241F4213209F044C0E092140141
:100E60000E94C50317C03323C9F429830E94C50318
:100E70002981223851F40093E9009091EB0081E040
:100E800095FF80E01092E90001C080E08093F100BE
:100E90001092F1008EEF8093E80027C0313011F0FE
:100EA000333001F52230F1F4E114F104D9F40F7775
:100EB000802F81508430B0F48EEF8093E80000934F
:100EC000E900333079F089E18093EB0081E090E034
:100ED00002C0880F991F0A95E2F78093EA001092EA
:100EE000EA0003C081E28093EB000F90DF91CF9185
:100EF000FF91EF91BF91AF919F918F917F916F91F2
:100F00005F914F913F912F911F910F91FF90EF9023
:100F10000F900FBE0F901F9018951F93CF93DF93E4
:100F2000EC01FE0121961491112349F01A3019F4B5
:100F30008DE00E942304812F0E942304F2CFDF91D1
:100F4000CF911F9108958A3010F490E301C097E388
:100F5000890F0E9423040895CF93C82F82958F7024
:100F60000E94A3078C2F8F700E94A307CF91089532
:100F7000CF93C82F892F0E94AC078C2F0E94AC07FB
:100F8000CF9108950E94AC070895EF92FF920F93BE
:100F90001F93CF93DF93CDB7DEB727970FB6F894A3
:100FA000DEBF0FBECDBF8E010F5F1F4F27E0F801E0
:100FB00011922A95E9F7B8014AE050E00E943613F1
:100FC000780100E010E0F70181917F01882311F0A2
:100FD0000E9423040F5F1F4F07301105A1F72796CA
:100FE0000FB6F894DEBF0FBECDBFDF91CF911F913A
:100FF0000F91FF90EF900895EF92FF920F931F9340
:10100000CF93DF9300D000D000D0CDB7DEB78E01F4
:101010000F5F1F4F26E0F80111922A95E9F7B801FA
:101020004AE050E00E94B013780100E010E0F701C0
:1010300081917F01882311F00E9423040F5F1F4FCD
:1010400005301105A1F726960FB6F894DEBF0FBE46
:10105000CDBFDF91CF911F910F91FF90EF90089539
:10106000EF92FF920F931F93CF93DF93CDB7DEB72D
:101070002B970FB6F894DEBF0FBECDBF8E010F5F6A
:101080001F4F2BE0F80111922A95E9F7A8012AE0F9
:1010900030E00E94571378018E01045F1F4FF70163
:1010A00081917F01882311F00E942304E016F1064C
:1010B000B1F72B960FB6F894DEBF0FBECDBFDF9110
:1010C000CF911F910F91FF90EF900895EF92FF92B3
:1010D0000F931F93CF93DF93CDB7DEB72B970FB648
:1010E000F894DEBF0FBECDBF8E010F5F1F4F2BE008
:1010F000F80111922A95E9F7A8012AE030E00E9450
:101100008B1378018E01055F1F4FF70181917F01DD
:10111000882311F00E942304E016F106B1F72B9604
:101120000FB6F894DEBF0FBECDBFDF91CF911F91F8
:101130000F91FF90EF900895382F87FD75C0823092
:1011400009F472C0833009F46FC08E300CF06CC0AB
:10115000809116018823E1F481E08093160180914B
:101160007C00806480937C0080917C008F778093EA
:101170007C0080917A00816080937A0080917A006F
:10118000826080937A0080917A00846080937A00F4
:10119000432F552747FD50953830A4F480917B00AC
:1011A0008F7D80937B0020917E0081E090E002C0E3
:1011B000880F991F4A95E2F7282B20937E00809193
:1011C0007C0016C080917B00806280937B00209120
:1011D0007D004850504081E090E002C0880F991F88
:1011E0004A95E2F7282B20937D0080917C003850AF
:1011F000807E832B80937C0080917A00806880932E
:101200007A0080917A00806480937A0080917A00DD
:1012100084FFFCCF80917A00806180937A002091D6
:1012200078003091790002C02FEF3FEFC901089597
:10123000E82FFF27E7FDF095EB31F10540F4E95683
:10124000FF4FEE0FFF1F0590F491E02D099480E011
:101250000895209883B167C0219883B11DC022985A
:1012600083B120C0239883B125C0249883B143C0A3
:10127000259883B149C0269883B14FC0279883B180
:101280002BC03E9886B149C03F9886B125C0509882
:1012900089B149C0519889B190E09695879543C02E
:1012A000529889B190E096958795969587953BC021
:1012B000539889B190E053E0969587955A95E1F758
:1012C00032C0549889B117C0559889B11DC056983D
:1012D00089B123C0579889B1881F8827881F08952E
:1012E0006E988CB11AC080988FB11DC081988FB153
:1012F000D3CF84988FB190E044E0969587954A9536
:10130000E1F711C085988FB190E035E0969587950B
:101310003A95E1F708C086988FB190E026E096955F
:1013200087952A95E1F78170089587988FB1881F76
:101330008827881F0895E82FFF27E7FDF095EB31F8
:10134000F10508F0BAC0EE54FF4FEE0FFF1F0590F5
:10135000F491E02D0994209A6623D1F4289830C0A6
:10136000219A662311F0299A2BC0299829C0229A24
:10137000662311F02A9A24C02A9822C0239A662351
:1013800011F02B9A1DC02B981BC0249A662311F0D4
:101390002C9A16C02C9814C0259A662311F02D9A09
:1013A0000FC02D980DC0269A662311F02E9A08C002
:1013B0002E9806C0279A662311F02F9A01C02F9805
:1013C00085B108953E9A662311F0469A08C0469862
:1013D00006C03F9A662311F0479A01C0479888B12A
:1013E0000895509A662311F0589A32C0589830C028
:1013F000519A662311F0599A2BC0599829C0529AD4
:10140000662311F05A9A24C05A9822C0539A662330
:1014100011F05B9A1DC05B981BC0549A662311F0B3
:101420005C9A16C05C9814C0559A662311F05D9AB8
:101430000FC05D980DC0569A662311F05E9A08C0E1
:101440005E9806C0579A662311F05F9A01C05F98B4
:101450008BB108956E9A662311F0769A01C0769842
:101460008EB10895809A662311F0889A22C08898D8
:1014700020C0819A662311F0899A1BC0899819C0EF
:10148000849A662311F08C9A14C08C9812C0859AA5
:10149000662311F08D9A0DC08D980BC0869A662335
:1014A00011F08E9A06C08E9804C0879A662319F0B0
:1014B0008F9A81B308958F9881B30895EF92FF9228
:1014C0000F931F937A018B01813009F4A7C08230FA
:1014D0001CF4882341F063C3833009F467C184306E
:1014E00009F05DC32CC284B5816084BD84B582607F
:1014F00084BD85B5886085BD16BC409319015093A5
:101500001A0160931B0170931C01CB01BA0120E00A
:1015100038E146E757E40E94CF1218168CF460E0D9
:1015200074E284E79BE4A80197010E9446110E949F
:10153000B31167BD85B5816085BD85B58D7F32C02E
:10154000C801B70120E030E545EF55E40E94CF1215
:10155000882374F060E074E284EF99E4A8019701B5
:101560000E9446110E94B31167BD85B58E7F17C0DA
:10157000C801B70120E030E045E754E40E94CF12F3
:101580008823A4F060E074E284E798E4A80197015E
:101590000E9446110E94B31167BD85B5816085BD6B
:1015A00085B5826085BD85B58B7F36C0C801B70122
:1015B00020E030E045E753E40E94CF12882374F026
:1015C00060E074E284E797E4A80197010E94461165
:1015D0000E94B31167BD85B58E7F18C0C801B701E1
:1015E00023E333E345E752E40E94CF1288230CF44F
:1015F000D6C260E074E284E796E4A80197010E94F5
:1016000046110E94B31167BD85B5816085BD85B562
:101610008D7F85BD85B5846085BD0FC180918100BA
:101620008061809381008091810088608093810037
:101630008091800082608093800080918000816032
:1016400080938000109285001092840040931D01C9
:1016500050931E0160931F0170932001CB01BA01CA
:1016600020E030E04AE753E40E94CF121816BCF4A1
:1016700060E074E284E79BE4A80197010E944611B0
:101680000E94B3117093890060938800809181005B
:10169000816080938100809181008D7F3CC0C80172
:1016A000B70120E030E048EF51E40E94CF128823D8
:1016B00094F060E074E284EF99E4A80197010E943D
:1016C00046110E94B3117093890060938800809145
:1016D00081008E7F1BC0C801B70120E030E040E8E8
:1016E00050E40E94CF128823E4F060E074E284E7C3
:1016F00098E4A80197010E9446110E94B3117093CB
:1017000089006093880080918100816080938100CE
:1017100080918100826080938100809181008B7F25
:1017200042C0C801B70120E030E040E85FE30E941A
:10173000CF12882394F060E074E284E797E4A80174
:1017400097010E9446110E94B31170938900609323
:101750008800809181008E7F1CC0C801B7012FE8EE
:1017600032EC45E75EE30E94CF1218160CF017C268
:1017700060E074E284E796E4A80197010E944611B4
:101780000E94B3117093890060938800809181005A
:10179000816080938100809181008D7F80938100A2
:1017A0008091810084608093810047C08091910086
:1017B0008061809391008091910088608093910076
:1017C00080919000826080939000809190008E7F45
:1017D0008093900010929500109294004093210104
:1017E000509322016093230170932401CB01BA012D
:1017F00020E030E04AE753E40E94CF121816FCF4D0
:1018000060E074E284E79BE4A80197010E9446111E
:101810000E94B3117093970060939600809191009D
:10182000816080939100809191008D7F80939100E1
:10183000809191008B7F8093910081E0B1C1C801BC
:10184000B70120E030E048EF51E40E94CF12882336
:1018500094F060E074E284EF99E4A80197010E949B
:1018600046110E94B3117093970060939600809187
:1018700091008E7F1BC0C801B70120E030E040E836
:1018800050E40E94CF128823BCF060E074E284E749
:1018900098E4A80197010E9446110E94B311709329
:1018A00097006093960080919100816080939100F1
:1018B000809191008260BACFC801B70120E030E08A
:1018C00040E85FE30E94CF12882394F060E074E266
:1018D00084E797E4A80197010E9446110E94B31182
:1018E0007093970060939600809191008E7F1CC04A
:1018F000C801B7012FE832EC45E75EE30E94CF1242
:1019000018160CF04CC160E074E284E796E4A8017C
:1019100097010E9446110E94B31170939700609343
:101920009600809191008160809391008091910058
:101930008D7F809391008091910084607CCF809115
:10194000C3008D7F8093C3008091C3008E7F8093FE
:10195000C3001092BF001092BE0040932501509327
:1019600026016093270170932801CB01BA0120E082
:1019700030E644E756E40E94CF121816E4F460E023
:1019800074E284E79BE4A80197010E9446110E943B
:10199000B3117093BF006093D1008091C10081604A
:1019A0008093C1008091C1008D7F8093C1008091A0
:1019B000C1008B7F29C0C801B70120E030E04AEFA9
:1019C00054E40E94CF1218162CF560E074E284EF04
:1019D00099E4A80197010E9446110E94B3117093E7
:1019E0001701109218017093BF006093D10080918D
:1019F000C1008E7F8093C1008091C1008D7F809354
:101A0000C1008091C10084608093C1008091C100B9
:101A1000877FC2C0C801B70120E030E844EF53E43B
:101A20000E94CF121816B4F460E074E284EF98E4D8
:101A3000A80197010E9446110E94B31170931701EB
:101A4000109218017093BF006093D1008091C10083
:101A50008E7F1FC0C801B70120E030E045E753E4A6
:101A60000E94CF121816DCF460E074E284E798E478
:101A7000A80197010E9446110E94B31170931701AB
:101A8000109218017093BF006093D1008091C10043
:101A900081608093C1008091C1008260B0CFC80195
:101AA000B70120E030E048EF51E40E94CF12181651
:101AB00004F560E074E284EF96E4A80197010E94C7
:101AC00046110E94B3117093170110921801709380
:101AD000BF006093D1008091C1008E7F8093C100D0
:101AE0008091C10082608093C1008091C1008B7F92
:101AF0004EC0C801B70120E030E040E051E40E9450
:101B0000CF121816DCF460E074E284EF95E4A801CB
:101B100097010E9446110E94B31170931701109211
:101B200018017093BF006093D1008091C1008E7F37
:101B30008093C1008091C1008D7F24C0C801B7018E
:101B400020E030E040E85FE30E94CF1218163CF539
:101B500060E074E284E794E4A80197010E944611D2
:101B60000E94B31170931701109218017093BF0077
:101B70006093D1008091C10081608093C100809109
:101B8000C10082608093C1008091C1008460809315
:101B9000C1008091C10088608093C1004ECE80E07A
:101BA0001F910F91FF90EF9008958130C9F082301E
:101BB0001CF4882339F095C0833091F1843009F00A
:101BC00090C041C0613009F08CC0442321F0509A8C
:101BD00084B5806203C0509884B58F7D84BD7FC07A
:101BE000613021F0623009F07CC00CC0442329F040
:101BF000269A80918000806210C026988091800093
:101C00008F7D0BC0442329F0279A80918000886043
:101C100004C0279880918000877F809380005FC0F8
:101C2000613009F05EC0442339F03E9A8091900003
:101C300080688093900010C03E98809190008F77CC
:101C40008093900013C06230D9F0633089F1613025
:101C500009F047C0442351F03F9A8091C00080684A
:101C60008093C0008091C00082601FC03F98809127
:101C7000C0008F778093C0008091C0008D7F15C019
:101C8000442351F0259A8091C00080618093C00068
:101C90008091C000816009C025988091C0008F7E2E
:101CA0008093C0008091C0008E7F8093C00017C0D9
:101CB000442351F0579A8091C20088608093C200FB
:101CC0008091C200816009C057988091C200877FCF
:101CD0008093C2008091C2008E7F8093C20081E019
:101CE000089580E00895AF92BF92CF92DF92EF9275
:101CF000FF920F931F93082F162F59016A01CA01F3
:101D0000B90120E030E040E050E00E94421187FD40
:101D100054C1C601B50120E030E048EC52E40E9415
:101D2000CF1218160CF449C1013049F102301CF4ED
:101D3000002341F042C1033009F465C0043009F0CA
:101D40003CC1C6C0113009F038C167B570E080E011
:101D500090E00E94DF117B018C01C601B50120E0FB
:101D600030E048EC52E40E9446119B01AC01C801EE
:101D7000B7010E94D3120E94B31168BDFAC011309E
:101D800021F0123009F019C11FC0609188007091D4
:101D9000890080E090E00E94DF117B018C01C60188
:101DA000B50120E030E048EC52E40E9446119B016E
:101DB000AC01C801B7010E94D3120E94B311709305
:101DC0008B0060938A0027C0609188007091890021
:101DD00080E090E00E94DF117B018C01C601B5011B
:101DE00020E030E048EC52E40E9446119B01AC0137
:101DF000C801B7010E94D3120E94B31170938D00E5
:101E000060938C0027C0123029F1133009F441C0CF
:101E1000113009F0D2C0609196007091970080E077
:101E200090E00E94DF117B018C01C601B50120E02A
:101E300030E048EC52E40E9446119B01AC01C8011D
:101E4000B7010E94D3120E94B3117093990060935E
:101E5000980046C0609196007091970080E090E0F5
:101E60000E94DF117B018C01C601B50120E030E04A
:101E700048EC52E40E9446119B01AC01C801B70135
:101E80000E94D3120E94B31170939B0060939A003A
:101E900049C0609196007091970080E090E00E94A8
:101EA000DF117B018C01C601B50120E030E048EC78
:101EB00052E40E9446119B01AC01C801B7010E9487
:101EC000D3120E94B31170939D0060939C0053C085
:101ED000123041F1133009F44EC0113009F06DC0D9
:101EE0002091D1007091170160E0620F711D80E0B8
:101EF00090E00E94DF117B018C01C601B50120E05A
:101F000030E048EC52E40E9446119B01AC01C8014C
:101F1000B7010E94D3120E94B3117093BF00609367
:101F2000CF0027C02091D1007091170160E0620FAF
:101F3000711D80E090E00E94DF117B018C0160E068
:101F400070E088EC92E4A60195010E94DD1020E08B
:101F500030E048EC52E40E9446119B01AC01C801FC
:101F6000B7010E94D3120E94B3117093BF00609317
:101F7000D00081E023C02091D1007091170160E072
:101F8000620F711D80E090E00E94DF117B018C01E7
:101F9000C601B50120E030E048EC52E40E94461151
:101FA0009B01AC01C801B7010E94D3120E94B3117A
:101FB0007093BF006093D200DCCF80E01F910F913F
:101FC000FF90EF90DF90CF90BF90AF900895CF92A9
:101FD000DF92EF92FF920F93CF93DF93CDB7DEB7EF
:101FE00060970FB6F894DEBF0FBECDBF002309F493
:101FF0005AC029873A874B875C876D877E878F8792
:10200000988B80E2801B49855A856B857C851816E4
:10201000B4F019821A821B821C82992787FD909541
:10202000909581959F4F04C0440F551F661F771FE1
:102030008A95D2F74D835E836F8378872CC06A01BF
:102040007B01002E04C0CC0CDD1CEE1CFF1C0A948E
:10205000D2F7C982DA82EB82FC826A017B0104C07A
:10206000F694E794D794C7948A95D2F7D701C6011E
:102070004D855E856F85788904C0440F551F661FA6
:10208000771F0A95D2F7842B952BA62BB72B8D8320
:102090009E83AF83B88729813A814B815C816D81B2
:1020A0007E818F81988560960FB6F894DEBF0FBE53
:1020B000CDBFDF91CF910F91FF90EF90DF90CF9048
:1020C000089580E8809361001092610085BF85BF0C
:1020D0000E94CA030E941B03809168008160809364
:1020E000680080916B00806880936B006E9A769A8E
:1020F0006A9A729A81E040E050E46CE177E40E94D1
:102100005E0A81E061E041E00E94D50D789486E0AE
:102110000E949C089C01B901882777FD8095982F23
:102120000E94E1118B01D82FC92F8AE991E00E940A
:102130008D07CE01402F512F692F782FCB01BA0187
:102140000E94AE11AB01BC01CA010E94C50786EA1C
:1021500091E00E948D0788E00E9418096E9A8130F4
:1021600049F076986A9A729A81E090E040E050E0F7
:10217000BA011AC0769A6A9A72989E01802F912F9E
:10218000A32FB22FBC01CD0120E030EC4FE754E487
:102190000E9446112BEA3AEA46EA52E40E94D31220
:1021A000AB01BC0180E090E00E9469018FE99FE0F3
:1021B0000197F1F700C00000AACF5058BB27AA270B
:1021C0000ED0B3C1A4D130F0A9D120F031F49F3F9B
:1021D00011F41EF499C10EF4E095E7FB8FC1E92FCD
:1021E000B5D180F3BA17620773078407950718F013
:1021F00071F49EF5CDC10EF4E0950B2EBA2FA02DF3
:102200000B01B90190010C01CA01A0011124FF27A3
:10221000591B99F0593F50F4503E68F11A16F0409E
:10222000A22F232F342F4427585FF3CF469537959D
:102230002795A795F0405395C9F77EF41F16BA0B62
:10224000620B730B840BBAF09150A1F0FF0FBB1F10
:10225000661F771F881FC2F70EC0BA0F621F731F59
:10226000841F48F4879577956795B795F7959E3FB6
:1022700008F0B3CF9395880F08F09927EE0F979544
:102280008795089517D108F481E008950CD04DC1C9
:1022900045D140F03CD130F021F45F3F19F02EC120
:1022A000511177C131C152D198F39923C9F3552304
:1022B000B1F3951B550BBB27AA2762177307840739
:1022C00038F09F5F5F4F220F331F441FAA1FA9F3EF
:1022D00033D00E2E3AF0E0E830D091505040E695E1
:1022E000001CCAF729D0FE2F27D0660F771F881F42
:1022F000BB1F261737074807AB07B0E809F0BB0B31
:10230000802DBF01FF2793585F4F2AF09E3F510554
:1023100068F0F4C03EC15F3FECF3983EDCF3869575
:1023200077956795B795F7959F5FC9F7880F911DCA
:102330009695879597F90895E1E0660F771F881FB6
:10234000BB1F621773078407BA0720F0621B730B69
:10235000840BBA0BEE1F88F7E095089504D06894BB
:10236000B11117C10895FAD088F09F5790F0B92F96
:102370009927B751A0F0D1F0660F771F881F991FDA
:102380001AF0BA95C9F712C0B13081F001D1B1E0AD
:102390000895FEC0672F782F8827B85F39F0B93FBE
:1023A000CCF3869577956795B395D9F73EF49095DC
:1023B0008095709561957F4F8F4F9F4F0895E8945A
:1023C00009C097FB3EF490958095709561957F4F7D
:1023D0008F4F9F4F9923A9F0F92F96E9BB2793952B
:1023E000F695879577956795B795F111F8CFFAF43B
:1023F000BB0F11F460FF1BC06F5F7F4F8F4F9F4F6C
:1024000016C0882311F096E911C0772321F09EE8C9
:10241000872F762F05C0662371F096E8862F70E02F
:1024200060E02AF09A95660F771F881FDAF7880F09
:102430009695879597F90895E894F92F96EBFF23E1
:1024400081F0121613061406440B9395F6958795A2
:102450007795679557954040FF23B9F71BC099279B
:102460000895882351F49850D2F7872B762F652F43
:10247000542F432F322F20E0B1F312161306140607
:10248000440B88233AF09A95440F551F661F771F17
:10249000881FCAF755234AF4440F551F11F460FFF3
:1024A00004C06F5F7F4F8F4F9F4F880F9695879522
:1024B00097F90895990F0008550FAA0BE0E8FEEF71
:1024C00016161706E807F907C0F012161306E407F8
:1024D000F50798F0621B730B840B950B39F40A26F1
:1024E00061F0232B242B252B21F408950A2609F4CF
:1024F000A140A6958FEF811D811D089597F99F67D3
:1025000080E870E060E008959FEF80EC089500247B
:102510000A941616170618060906089500240A9448
:1025200012161306140605060895092E0394000CCE
:1025300011F4882352F0BB0F40F4BF2B11F460FF5D
:1025400004C06F5F7F4F8F4F9F4F089557FD905886
:10255000440F551F59F05F3F71F04795880F97FB67
:10256000991F61F09F3F79F0879508951216130621
:102570001406551FF2CF4695F1DF08C01616170650
:102580001806991FF1CF8695710561050894089585
:10259000E894BB2766277727CB0197F908958ADF50
:1025A00008F48FEF08950BD0C0CFB1DF28F0B6DF6D
:1025B00018F0952309F0A2CFA7CF1124EACFC6DFE8
:1025C000A0F3959FD1F3950F50E0551F629FF00146
:1025D000729FBB27F00DB11D639FAA27F00DB11D9F
:1025E000AA1F649F6627B00DA11D661F829F222728
:1025F000B00DA11D621F739FB00DA11D621F839FAF
:10260000A00D611D221F749F3327A00D611D231F84
:10261000849F600D211D822F762F6A2F11249F57D2
:1026200050408AF0E1F088234AF0EE0FFF1FBB1FF5
:10263000661F771F881F91505040A9F79E3F510594
:1026400070F05CCFA6CF5F3FECF3983EDCF386954D
:1026500077956795B795F795E7959F5FC1F7FE2B3F
:10266000880F911D9695879597F90895FB019F0115
:10267000E8944230C4F04532B4F44A3029F497FB70
:102680001EF4909581959F4F642F77270E94D61353
:10269000805D8A330CF0895D8193CB010097A1F7AF
:1026A00016F45DE251931082C9010C94C613FA012D
:1026B000CF93FF93EF93223044F1253234F5C22FAC
:1026C000E894CA3049F497FB3EF490958095709554
:1026D00061957F4F8F4F9F4F2C2F332744275527CE
:1026E000FF93EF930E94EA13EF91FF91605D6A33CD
:1026F0000CF0695D6193B901CA016050704080407F
:10270000904051F716F4CDE2C19310828F919F91C2
:10271000CF910C94C613FA01CF93FF93EF9322301D
:10272000CCF02532BCF4C22F2C2F33274427552759
:10273000FF93EF930E94EA13EF91FF91605D6A337C
:102740000CF0695D6193B901CA016050704080402E
:10275000904051F710828F919F91CF910C94C613A6
:10276000FB019F01423074F0453264F4642F7727F7
:102770000E94D613805D8A330CF0895D8193CB0172
:102780000097A1F71082C9010C94C613DC01FC016B
:10279000672F71917723E1F7329704C07C916D9395
:1027A00070836291AE17BF07C8F30895AA1BBB1BC5
:1027B00051E107C0AA1FBB1FA617B70710F0A61B41
:1027C000B70B881F991F5A95A9F780959095BC0162
:1027D000CD010895A1E21A2EAA1BBB1BFD010DC05D
:1027E000AA1FBB1FEE1FFF1FA217B307E407F507C1
:1027F00020F0A21BB30BE40BF50B661F771F881F9D
:10280000991F1A9469F760957095809590959B0132
:0C281000AC01BD01CF010895F894FFCF8A
:08281C0000E1000000000800CB
:00000001FF
