:100000000C9427010C9444010C9444010C94440179
:100010000C9444010C9444010C9444010C9444014C
:100020000C9444010C9444010C9473030C94AD03A0
:100030000C9444010C9444010C9444010C9444012C
:100040000C9444010C9444010C9444010C9444011C
:100050000C9444010C9444010C9444010C9444010C
:100060000C9444010C9444010C9444010C944401FC
:100070000C9444010C9444010C9444010C944401EC
:100080000C9444010C9444010C9444010C944401DC
:100090000C9444010C9444010C9444010C944401CC
:1000A0000C9444010C9444010C9444011403110376
:1000B0000E030B03080305030203FF02FC02F9020F
:1000C000F602F302F002ED02EA02E702E402E102C4
:1000D000DE02DB02D802D502D202CF02CC02C90274
:1000E000C602C302C002BD02BA02B702B402B10224
:1000F000AE02AB02A802A502A2029F029C029902D4
:100100009602930290028D028A0287028402810283
:100110007E027B027802750272026F026C02690233
:100120006602630260025D025A02570254027806B8
:100130007B062C062C067E06870690069A06660627
:100140006C066F063A063D0640062E06310634065A
:10015000370643064C064F0655065D0669064606F9
:100160004906750637073E076207620745074C07D1
:1001700053075A07120720072707CA06D106D806D1
:10018000B006B506BC06C306DF06F606FD06040784
:100190000B071907E706EE062F0700010000CE0146
:1001A0001200020000E001430003000023020401EA
:1001B000030904270212020309043B020603030990
:1001C000044302080001C112018036018136120188
:1001D000000202000010C0167A04000101020301AF
:1001E00009024300020100C03209040000010202BA
:1001F0000100052400100105240101010424020668
:1002000005240600010705820310004009040100CF
:10021000020A0000000705030240000007058402EF
:100220004000000403090412034A002E0020004687
:1002300000690065006E006500000006034D003295
:1002400000000008033400310030000000001124D9
:100250001FBECFEFDAE0DEBFCDBF11E0A0E0B1E01E
:10026000E8E1F0E202C005900D92A830B107D9F79D
:1002700011E0A8E0B1E001C01D92AE31B107E1F795
:100280000E94EC0C0C940A100C9400008091E80081
:1002900080FFFCCF089581E08093D70080EA8093AF
:1002A000D80082E189BD09B400FEFDCF80E98093CA
:1002B000D8001092E0001092090110920A018CE01F
:1002C0008093E200789408958091090108959FB782
:1002D000F89480910901882339F083E08093E90044
:1002E0008091E80085FD03C09FBF8FEF0895809146
:1002F000F1002091E80025FD03C02BE62093E800E3
:100300009FBF08959FB7F89480910901882331F029
:1003100083E08093E9008091F20001C080E09FBFFC
:10032000089580910901882371F08FB7F89493E0C4
:100330009093E9009BE602C09093E8002091E800CA
:1003400025FDFACF8FBF0895909109019923D1F12E
:100350009FB7F89424E02093E90020910B01222319
:1003600041F02091E80025FD02C09FBF2BC01092F4
:100370000B012091E400275E34E04091E80045FD48
:1003800012C09FBF9091E400921721F481E0809306
:100390000B0118C0909109019923B1F09FB7F8940F
:1003A0003093E900EACF8093F1008091E80085FD69
:1003B00003C08AE38093E80085E0809308019FBF33
:1003C00080E008958FEF08958FEF089590910901CF
:1003D0009923D9F09FB7F89424E02093E900209165
:1003E000E80025FD03C09FBF8FEF08958093F100C3
:1003F0008091E80085FD03C08AE38093E80085E0F2
:10040000809308019FBF80E008958FEF0895CF93F8
:10041000DC0180910901882309F41AC12FB7F894EF
:1004200084E08093E90080910B01882309F405C1E1
:100430008091E80085FD02C02FBF0AC110920B0118
:10044000FCC08091E400875E9091E80095FD13C0A8
:100450002FBF9091E400981721F481E080930B0165
:10046000F7C090910901992309F4F2C02FB7F894CD
:10047000C093E900E9CF8091F200E52FE81B8E2FB1
:1004800090E06817790708F4E62F6E1B7109F0E019
:10049000E134F10508F0C5C0EA5AFF4FEE0FFF1F27
:1004A0000590F491E02D09948D918093F1008D9148
:1004B0008093F1008D918093F1008D918093F100F4
:1004C0008D918093F1008D918093F1008D918093B7
:1004D000F1008D918093F1008D918093F1008D91C9
:1004E0008093F1008D918093F1008D918093F100C4
:1004F0008D918093F1008D918093F1008D91809387
:10050000F1008D918093F1008D918093F1008D9198
:100510008093F1008D918093F1008D918093F10093
:100520008D918093F1008D918093F1008D91809356
:10053000F1008D918093F1008D918093F1008D9168
:100540008093F1008D918093F1008D918093F10063
:100550008D918093F1008D918093F1008D91809326
:10056000F1008D918093F1008D918093F1008D9138
:100570008093F1008D918093F1008D918093F10033
:100580008D918093F1008D918093F1008D918093F6
:10059000F1008D918093F1008D918093F1008D9108
:1005A0008093F1008D918093F1008D918093F10003
:1005B0008D918093F1008D918093F1008D918093C6
:1005C000F1008D918093F1008D918093F1008D91D8
:1005D0008093F1008D918093F1008D918093F100D3
:1005E0008D918093F1008D918093F1008D91809396
:1005F000F1008D918093F1008D918093F1008D91A8
:100600008093F1008D918093F1008D918093F100A2
:100610008D918093F1008D918093F1008D91809365
:10062000F1008D918093F1008091E80085FD02C07A
:100630004093E8003093080104C0C4E050E44AE36A
:1006400035E06115710509F0FCCE2FBF80E001C0D7
:100650008FEFCF9108958FB7F89490910801992367
:1006600041F094E09093E9009AE39093E8001092AF
:1006700008018FBF089580910401089580910501BC
:10068000089580910601089580910A0108959FB709
:10069000F89420910901222339F022E02093E90007
:1006A0003091E80035FD03C09FBF8FEF089531EA18
:1006B0003093F10030E23093F1001092F10010928B
:1006C000F1001092F1001092F1002093F1001092CD
:1006D000F1008093F1001092F1008AE38093E8002A
:1006E0009FBF80E008951F920F920FB60F921124C2
:1006F0008F939F938091E1001092E10083FF11C0DE
:100700001092E90091E09093EB001092EC0092E1DE
:100710009093ED0098E09093F000109209011092F0
:100720000A0182FF13C080910901882379F080912A
:100730000801882359F0815080930801882331F4FF
:1007400084E08093E9008AE38093E8009F918F9191
:100750000F900FBE0F901F9018951F920F920FB61B
:100760000F921124EF92FF920F931F932F933F93B9
:100770004F935F936F937F938F939F93AF93BF93A9
:10078000EF93FF93CF93DF930F92CDB7DEB7109225
:10079000E9008091E80083FF26C12091F1003091AB
:1007A000F100E090F100FF244091F100942F80E0EF
:1007B000E82AF92A0091F10010E04091F100942F0D
:1007C00080E0082B192B6091F100A091F10082EFDD
:1007D0008093E800363009F051C046E02AE931E064
:1007E000F901859194918E159F0539F4F90132969E
:1007F000859194918017910729F0295F3F4F4150CF
:1008000079F7F1C0F901349685919491AC012A5F92
:100810003F4FF901249170E09A2F80E0682B792BEB
:100820006F3F710519F010F06FEF70E0621708F478
:10083000262FAEEF8091E80090E0BC0165707070EB
:1008400061157105B9F382FDD1C0322F213108F055
:1008500030E1CA01632F06C0FC010196E491E093E8
:10086000F10061506623C1F7430F511D231BA09374
:10087000E8002223F9F63031E9F2B8C0353051F4FE
:100880008EEF8093E8000E9446018E2D8068809351
:10089000E300ACC0393069F5222309F0A4C0E0922E
:1008A000090110920A01109208018EEF8093E8006E
:1008B00041E084EC91E001C0C9014093E9009C0152
:1008C0002F5F3F4FFC0154915093EB00552361F093
:1008D000F90124912093EC009C012D5F3F4F02967B
:1008E000FC0184918093ED004F5F453029F78EE144
:1008F00075C0383051F4203809F075C00E944601A7
:10090000809109018093F10046C0313271F4213A9F
:1009100009F069C00E94460187E0E0E0F1E09191B2
:100920009093F1008150D9F736C0303299F42132DA
:1009300009F059C08091E80082FFFCCF87E0E0E039
:10094000F1E09091F10091938150D9F78BEF809372
:10095000E80021C0323241F4213209F044C0E09273
:100960000A010E94460117C03323C9F429830E945B
:1009700046012981223851F40093E9009091EB005F
:1009800081E095FF80E01092E90001C080E0809353
:10099000F1001092F1008EEF8093E80027C0313013
:1009A00011F0333001F52230F1F4E114F104D9F4FF
:1009B0000F77802F81508430B0F48EEF8093E80061
:1009C0000093E900333079F089E18093EB0081E016
:1009D00090E002C0880F991F0A95E2F78093EA0021
:1009E0001092EA0003C081E28093EB000F90DF9148
:1009F000CF91FF91EF91BF91AF919F918F917F9197
:100A00006F915F914F913F912F911F910F91FF90A7
:100A1000EF900F900FBE0F901F9018951F93CF93DC
:100A2000DF93EC01FE0121961491112349F01A3055
:100A300019F48DE00E94A401812F0E94A401F2CF3D
:100A4000DF91CF911F9108958A3010F490E301C097
:100A500097E3890F0E94A4010895CF93C82F829530
:100A60008F700E9424058C2F8F700E942405CF91D7
:100A70000895CF93C82F892F0E942D058C2F0E9497
:100A80002D05CF9108950E942D050895EF92FF92B4
:100A90000F931F93CF93DF93CDB7DEB727970FB692
:100AA000F894DEBF0FBECDBF8E010F5F1F4F27E052
:100AB000F80111922A95E9F7B8014AE050E00E9446
:100AC000340F780100E010E0F70181917F01882365
:100AD00011F00E94A4010F5F1F4F07301105A1F70D
:100AE00027960FB6F894DEBF0FBECDBFDF91CF9132
:100AF0001F910F91FF90EF900895EF92FF920F9347
:100B00001F93CF93DF9300D000D000D0CDB7DEB7D6
:100B10008E010F5F1F4F26E0F80111922A95E9F729
:100B2000B8014AE050E00E94AE0F780100E010E00A
:100B3000F70181917F01882311F00E94A4010F5FCA
:100B40001F4F05301105A1F726960FB6F894DEBFAA
:100B50000FBECDBFDF91CF911F910F91FF90EF900E
:100B60000895EF92FF920F931F93CF93DF93CDB72A
:100B7000DEB72B970FB6F894DEBF0FBECDBF8E0148
:100B80000F5F1F4F2BE0F80111922A95E9F7A8019A
:100B90002AE030E00E94550F78018E01045F1F4F5C
:100BA000F70181917F01882311F00E94A401E016D2
:100BB000F106B1F72B960FB6F894DEBF0FBECDBF8E
:100BC000DF91CF911F910F91FF90EF900895EF92D9
:100BD000FF920F931F93CF93DF93CDB7DEB72B9781
:100BE0000FB6F894DEBF0FBECDBF8E010F5F1F4F53
:100BF0002BE0F80111922A95E9F7A8012AE030E0EC
:100C00000E94890F78018E01055F1F4FF7018191C6
:100C10007F01882311F00E94A401E016F106B1F7CC
:100C20002B960FB6F894DEBF0FBECDBFDF91CF91EC
:100C30001F910F91FF90EF900895E82FFF27E7FD98
:100C4000F095EB31F10540F4E956FF4FEE0FFF1F31
:100C50000590F491E02D099480E00895209883B1E7
:100C600067C0219883B11DC0229883B120C023980A
:100C700083B125C0249883B143C0259883B149C06E
:100C8000269883B14FC0279883B12BC03E9886B178
:100C900049C03F9886B125C0509889B149C0519844
:100CA00089B190E09695879543C0529889B190E0BC
:100CB00096958795969587953BC0539889B190E016
:100CC00053E0969587955A95E1F732C0549889B1CB
:100CD00017C0559889B11DC0569889B123C057983F
:100CE00089B1881F8827881F08956E988CB11AC013
:100CF00080988FB11DC081988FB1D3CF84988FB168
:100D000090E044E0969587954A95E1F711C0859863
:100D10008FB190E035E0969587953A95E1F708C058
:100D200086988FB190E026E0969587952A95E1F711
:100D30008170089587988FB1881F8827881F08952C
:100D4000E82FFF27E7FDF095EB31F10508F0BAC079
:100D5000EE54FF4FEE0FFF1F0590F491E02D099424
:100D6000209A6623D1F4289830C0219A662311F086
:100D7000299A2BC0299829C0229A662311F02A9A11
:100D800024C02A9822C0239A662311F02B9A1DC0F2
:100D90002B981BC0249A662311F02C9A16C02C980D
:100DA00014C0259A662311F02D9A0FC02D980DC0FE
:100DB000269A662311F02E9A08C02E9806C0279A0C
:100DC000662311F02F9A01C02F9885B108953E9A9D
:100DD000662311F0469A08C0469806C03F9A6623DB
:100DE00011F0479A01C0479888B10895509A662338
:100DF00011F0589A32C0589830C0519A662311F0B9
:100E0000599A2BC0599829C0529A662311F05A9AC0
:100E100024C05A9822C0539A662311F05B9A1DC0D1
:100E20005B981BC0549A662311F05C9A16C05C98BC
:100E300014C0559A662311F05D9A0FC05D980DC0DD
:100E4000569A662311F05E9A08C05E9806C0579ABB
:100E5000662311F05F9A01C05F988BB108956E9A76
:100E6000662311F0769A01C076988EB10895809A23
:100E7000662311F0889A22C0889820C0819A662340
:100E800011F0899A1BC0899819C0849A662311F0C1
:100E90008C9A14C08C9812C0859A662311F08D9A92
:100EA0000DC08D980BC0869A662311F08E9A06C0ED
:100EB0008E9804C0879A662319F08F9A81B308959B
:100EC0008F9881B30895EF92FF920F931F937A0149
:100ED0008B01813009F4A7C082301CF4882341F0D3
:100EE00063C3833009F467C1843009F05DC32CC249
:100EF00084B5816084BD84B5826084BD85B5886019
:100F000085BD16BC40930E0150930F0160931001F4
:100F100070931101CB01BA0120E038E146E757E4B4
:100F20000E94CD0E18168CF460E074E284E79BE416
:100F3000A80197010E94870D0E94EF0D67BD85B53E
:100F4000816085BD85B58D7F32C0C801B70120E0C5
:100F500030E545EF55E40E94CD0E882374F060E043
:100F600074E284EF99E4A80197010E94870D0E9422
:100F7000EF0D67BD85B58E7F17C0C801B70120E0B2
:100F800030E045E754E40E94CD0E8823A4F060E0F1
:100F900074E284E798E4A80197010E94870D0E94FB
:100FA000EF0D67BD85B5816085BD85B5826085BD66
:100FB00085B58B7F36C0C801B70120E030E045E73A
:100FC00053E40E94CD0E882374F060E074E284E75D
:100FD00097E4A80197010E94870D0E94EF0D67BD5D
:100FE00085B58E7F18C0C801B70123E333E345E719
:100FF00052E40E94CD0E88230CF4D6C260E074E265
:1010000084E796E4A80197010E94870D0E94EF0DE6
:1010100067BD85B5816085BD85B58D7F85BD85B58D
:10102000846085BD0FC180918100806180938100C3
:10103000809181008860809381008091800082602F
:101040008093800080918000816080938000109266
:101050008500109284004093120150931301609315
:10106000140170931501CB01BA0120E030E04AE78A
:1010700053E40E94CD0E1816BCF460E074E284E7DD
:101080009BE4A80197010E94870D0E94EF0D7093C9
:101090008900609388008091810081608093810045
:1010A000809181008D7F3CC0C801B70120E030E015
:1010B00048EF51E40E94CD0E882394F060E074E282
:1010C00084EF99E4A80197010E94870D0E94EF0D1B
:1010D0007093890060938800809181008E7F1BC08F
:1010E000C801B70120E030E040E850E40E94CD0E96
:1010F0008823E4F060E074E284E798E4A8019701B3
:101100000E94870D0E94EF0D709389006093880004
:101110008091810081608093810080918100826054
:1011200080938100809181008B7F42C0C801B7010C
:1011300020E030E040E85FE30E94CD0E882394F089
:1011400060E074E284E797E4A80197010E94870DAC
:101150000E94EF0D70938900609388008091810058
:101160008E7F1CC0C801B7012FE832EC45E75EE373
:101170000E94CD0E18160CF017C260E074E284E7EE
:1011800096E4A80197010E94870D0E94EF0D7093CD
:101190008900609388008091810081608093810044
:1011A000809181008D7F8093810080918100846097
:1011B0008093810047C0809191008061809391006D
:1011C000809191008860809391008091900082606E
:1011D00080939000809190008E7F80939000109279
:1011E000950010929400409316015093170160935C
:1011F000180170931901CB01BA0120E030E04AE7F1
:1012000053E40E94CD0E1816FCF460E074E284E70B
:101210009BE4A80197010E94870D0E94EF0D709337
:101220009700609396008091910081608093910077
:10123000809191008D7F80939100809191008B7FB0
:101240008093910081E0B1C1C801B70120E030E096
:1012500048EF51E40E94CD0E882394F060E074E2E0
:1012600084EF99E4A80197010E94870D0E94EF0D79
:101270007093970060939600809191008E7F1BC0C1
:10128000C801B70120E030E040E850E40E94CD0EF4
:101290008823BCF060E074E284E798E4A801970139
:1012A0000E94870D0E94EF0D709397006093960047
:1012B0008091910081608093910080919100826083
:1012C000BACFC801B70120E030E040E85FE30E94F8
:1012D000CD0E882394F060E074E284E797E4A801DF
:1012E00097010E94870D0E94EF0D70939700609305
:1012F0009600809191008E7F1CC0C801B7012FE835
:1013000032EC45E75EE30E94CD0E18160CF04CC19E
:1013100060E074E284E796E4A80197010E94870DDB
:101320000E94EF0D7093970060939600809191005A
:10133000816080939100809191008D7F80939100D6
:101340008091910084607CCF8091C3008D7F8093D9
:10135000C3008091C3008E7F8093C3001092BF00B2
:101360001092BE0040931A0150931B0160931C0120
:1013700070931D01CB01BA0120E030E644E756E44A
:101380000E94CD0E1816E4F460E074E284E79BE45A
:10139000A80197010E94870D0E94EF0D7093BF0076
:1013A0006093D1008091C10081608093C1008091E1
:1013B000C1008D7F8093C1008091C1008B7F29C0C7
:1013C000C801B70120E030E04AEF54E40E94CD0E9E
:1013D00018162CF560E074E284EF99E4A8019701F7
:1013E0000E94870D0E94EF0D70930C0110920D0169
:1013F0007093BF006093D1008091C1008E7F809375
:10140000C1008091C1008D7F8093C1008091C10097
:1014100084608093C1008091C100877FC2C0C801F1
:10142000B70120E030E844EF53E40E94CD0E1816D7
:10143000B4F460E074E284EF98E4A80197010E949C
:10144000870D0E94EF0D70930C0110920D017093A7
:10145000BF006093D1008091C1008E7F1FC0C80182
:10146000B70120E030E045E753E40E94CD0E1816A6
:10147000DCF460E074E284E798E4A80197010E943C
:10148000870D0E94EF0D70930C0110920D01709367
:10149000BF006093D1008091C10081608093C10042
:1014A0008091C1008260B0CFC801B70120E030E078
:1014B00048EF51E40E94CD0E181604F560E074E286
:1014C00084EF96E4A80197010E94870D0E94EF0D1A
:1014D00070930C0110920D017093BF006093D100C6
:1014E0008091C1008E7F8093C1008091C100826095
:1014F0008093C1008091C1008B7F4EC0C801B701AD
:1015000020E030E040E051E40E94CD0E1816DCF4FB
:1015100060E074E284EF95E4A80197010E94870DD2
:101520000E94EF0D70930C0110920D017093BF009B
:101530006093D1008091C1008E7F8093C100809123
:10154000C1008D7F24C0C801B70120E030E040E831
:101550005FE30E94CD0E18163CF560E074E284E76C
:1015600094E4A80197010E94870D0E94EF0D7093EB
:101570000C0110920D017093BF006093D100809117
:10158000C10081608093C1008091C100826080931E
:10159000C1008091C10084608093C1008091C1002E
:1015A00088608093C1004ECE80E01F910F91FF9024
:1015B000EF9008958130C9F082301CF4882339F00F
:1015C00095C0833091F1843009F090C041C0613002
:1015D00009F08CC0442321F0509A84B5806203C086
:1015E000509884B58F7D84BD7FC0613021F062301A
:1015F00009F07CC00CC0442329F0269A8091800019
:10160000806210C02698809180008F7D0BC044239B
:1016100029F0279A80918000886004C027988091E3
:101620008000877F809380005FC0613009F05EC0DA
:10163000442339F03E9A8091900080688093900016
:1016400010C03E98809190008F778093900013C0D7
:101650006230D9F0633089F1613009F047C044232A
:1016600051F03F9A8091C00080688093C0008091C3
:10167000C00082601FC03F988091C0008F77809328
:10168000C0008091C0008D7F15C0442351F0259A81
:101690008091C00080618093C0008091C000816013
:1016A00009C025988091C0008F7E8093C0008091F2
:1016B000C0008E7F8093C00017C0442351F0579A1A
:1016C0008091C20088608093C2008091C2008160D6
:1016D00009C057988091C200877F8093C200809193
:1016E000C2008E7F8093C20081E0089580E008955B
:1016F000AF92BF92CF92DF92EF92FF920F931F9320
:10170000082F162F59016A01CA01B90120E030E003
:1017100040E050E00E94830D87FD54C1C601B50131
:1017200020E030E048EC52E40E94CD0E18160CF494
:1017300049C1013049F102301CF4002341F042C19B
:10174000033009F465C0043009F03CC1C6C0113053
:1017500009F038C167B570E080E090E00E941B0E90
:101760007B018C01C601B50120E030E048EC52E479
:101770000E94870D9B01AC01C801B7010E94D10EE8
:101780000E94EF0D68BDFAC0113021F0123009F04F
:1017900019C11FC0609188007091890080E090E0BD
:1017A0000E941B0E7B018C01C601B50120E030E0D8
:1017B00048EC52E40E94870D9B01AC01C801B701BF
:1017C0000E94D10E0E94EF0D70938B0060938A00EF
:1017D00027C0609188007091890080E090E00E94AD
:1017E0001B0E7B018C01C601B50120E030E048EC06
:1017F00052E40E94870D9B01AC01C801B7010E9411
:10180000D10E0E94EF0D70938D0060938C0027C065
:10181000123029F1133009F441C0113009F0D2C05F
:10182000609196007091970080E090E00E941B0EFE
:101830007B018C01C601B50120E030E048EC52E4A8
:101840000E94870D9B01AC01C801B7010E94D10E17
:101850000E94EF0D709399006093980046C06091CC
:1018600096007091970080E090E00E941B0E7B0133
:101870008C01C601B50120E030E048EC52E40E9442
:10188000870D9B01AC01C801B7010E94D10E0E94D7
:10189000EF0D70939B0060939A0049C06091960091
:1018A0007091970080E090E00E941B0E7B018C01FC
:1018B000C601B50120E030E048EC52E40E94870DFB
:1018C0009B01AC01C801B7010E94D10E0E94EF0D2F
:1018D00070939D0060939C0053C0123041F113300F
:1018E00009F44EC0113009F06DC02091D100709103
:1018F0000C0160E0620F711D80E090E00E941B0E01
:101900007B018C01C601B50120E030E048EC52E4D7
:101910000E94870D9B01AC01C801B7010E94D10E46
:101920000E94EF0D7093BF006093CF0027C02091FD
:10193000D10070910C0160E0620F711D80E090E0B9
:101940000E941B0E7B018C0160E070E088EC92E449
:10195000A60195010E941E0D20E030E048EC52E403
:101960000E94870D9B01AC01C801B7010E94D10EF6
:101970000E94EF0D7093BF006093D00081E023C000
:101980002091D10070910C0160E0620F711D80E028
:1019900090E00E941B0E7B018C01C601B50120E086
:1019A00030E048EC52E40E94870D9B01AC01C80175
:1019B000B7010E94D10E0E94EF0D7093BF0060939B
:1019C000D200DCCF80E01F910F91FF90EF90DF906D
:1019D000CF90BF90AF90089580E885BF85BF80E02D
:1019E00040E050E068EC72E40E94630780E061E050
:1019F00041E00E94DA0A80E061E020E030E040E06F
:101A00005FE30E94780B6E9A769A6A9A729A88E0DF
:101A10000E941D066E9A813021F076986A9A729A19
:101A200003C0769A6A9A72988FEF90E7A2E081508D
:101A30009040A040E1F700C00000E9CF5058BB271C
:101A4000AA270ED070C161D130F066D120F031F4F8
:101A50009F3F11F41EF456C10EF4E095E7FB4CC114
:101A6000E92F72D180F3BA176207730784079507CD
:101A700018F071F49EF58AC10EF4E0950B2EBA2F82
:101A8000A02D0B01B90190010C01CA01A001112484
:101A9000FF27591B99F0593F50F4503E68F11A1630
:101AA000F040A22F232F342F4427585FF3CF4695C1
:101AB00037952795A795F0405395C9F77EF41F16E3
:101AC000BA0B620B730B840BBAF09150A1F0FF0FAD
:101AD000BB1F661F771F881FC2F70EC0BA0F621F99
:101AE000731F841F48F4879577956795B795F79589
:101AF0009E3F08F0B3CF9395880F08F09927EE0F1B
:101B0000979587950895D4D008F481E008950CD076
:101B10000AC102D140F0F9D030F021F45F3F19F052
:101B2000EBC0511134C1EEC00FD198F39923C9F322
:101B30005523B1F3951B550BBB27AA2762177307D3
:101B4000840738F09F5F5F4F220F331F441FAA1F87
:101B5000A9F333D00E2E3AF0E0E830D09150504047
:101B6000E695001CCAF729D0FE2F27D0660F771FF5
:101B7000881FBB1F261737074807AB07B0E809F0D7
:101B8000BB0B802DBF01FF2793585F4F2AF09E3F6C
:101B9000510568F0B1C0FBC05F3FECF3983EDCF349
:101BA000869577956795B795F7959F5FC9F7880FE5
:101BB000911D9695879597F90895E1E0660F771F37
:101BC000881FBB1F621773078407BA0720F0621BC8
:101BD000730B840BBA0BEE1F88F7E0950895BCD009
:101BE00088F09F5790F0B92F9927B751A0F0D1F006
:101BF000660F771F881F991F1AF0BA95C9F712C090
:101C0000B13081F0C3D0B1E00895C0C0672F782F04
:101C10008827B85F39F0B93FCCF3869577956795FB
:101C2000B395D9F73EF490958095709561957F4F67
:101C30008F4F9F4F0895E89409C097FB3EF490950D
:101C40008095709561957F4F8F4F9F4F9923A9F095
:101C5000F92F96E9BB279395F69587957795679524
:101C6000B795F111F8CFFAF4BB0F11F460FF1BC068
:101C70006F5F7F4F8F4F9F4F16C0882311F096E9FB
:101C800011C0772321F09EE8872F762F05C06623A9
:101C900071F096E8862F70E060E02AF09A95660F62
:101CA000771F881FDAF7880F9695879597F908951B
:101CB000990F0008550FAA0BE0E8FEEF161617065D
:101CC000E807F907C0F012161306E407F50798F0C5
:101CD000621B730B840B950B39F40A2661F0232BDE
:101CE000242B252B21F408950A2609F4A140A6955A
:101CF0008FEF811D811D089597F99F6780E870E03F
:101D000060E008959FEF80EC089500240A94161671
:101D1000170618060906089500240A9412161306D9
:101D2000140605060895092E0394000C11F4882367
:101D300052F0BB0F40F4BF2B11F460FF04C06F5F83
:101D40007F4F8F4F9F4F089557FD9058440F551F59
:101D500059F05F3F71F04795880F97FB991F61F02D
:101D60009F3F79F087950895121613061406551FA4
:101D7000F2CF4695F1DF08C0161617061806991F10
:101D8000F1CF86957105610508940895E894BB2705
:101D900066277727CB0197F908958ADF08F48FEF3C
:101DA00008950BD0C0CFB1DF28F0B6DF18F095232F
:101DB00009F0A2CFA7CF1124EACFC6DFA0F3959FE9
:101DC000D1F3950F50E0551F629FF001729FBB2722
:101DD000F00DB11D639FAA27F00DB11DAA1F649FCE
:101DE0006627B00DA11D661F829F2227B00DA11D81
:101DF000621F739FB00DA11D621F839FA00D611D07
:101E0000221F749F3327A00D611D231F849F600D27
:101E1000211D822F762F6A2F11249F5750408AF060
:101E2000E1F088234AF0EE0FFF1FBB1F661F771FEC
:101E3000881F91505040A9F79E3F510570F05CCF2C
:101E4000A6CF5F3FECF3983EDCF3869577956795D8
:101E5000B795F795E7959F5FC1F7FE2B880F911D0A
:101E60009695879597F90895FB019F01E894423074
:101E7000C4F04532B4F44A3029F497FB1EF490952F
:101E800081959F4F642F77270E94D40F805D8A33FE
:101E90000CF0895D8193CB010097A1F716F45DE208
:101EA00051931082C9010C94C40FFA01CF93FF9390
:101EB000EF93223044F1253234F5C22FE894CA3032
:101EC00049F497FB3EF490958095709561957F4F0E
:101ED0008F4F9F4F2C2F332744275527FF93EF9386
:101EE0000E94E80FEF91FF91605D6A330CF0695D2D
:101EF0006193B901CA01605070408040904051F731
:101F000016F4CDE2C19310828F919F91CF910C94E2
:101F1000C40FFA01CF93FF93EF932230CCF0253218
:101F2000BCF4C22F2C2F332744275527FF93EF9360
:101F30000E94E80FEF91FF91605D6A330CF0695DDC
:101F40006193B901CA01605070408040904051F7E0
:101F500010828F919F91CF910C94C40FFB019F0130
:101F6000423074F0453264F4642F77270E94D40F16
:101F7000805D8A330CF0895D8193CB010097A1F7D6
:101F80001082C9010C94C40FDC01FC01672F719110
:101F90007723E1F7329704C07C916D93708362914F
:101FA000AE17BF07C8F30895AA1BBB1B51E107C0BA
:101FB000AA1FBB1FA617B70710F0A61BB70B881FD9
:101FC000991F5A95A9F780959095BC01CD01089568
:101FD000A1E21A2EAA1BBB1BFD010DC0AA1FBB1F2D
:101FE000EE1FFF1FA217B307E407F50720F0A21B9F
:101FF000B30BE40BF50B661F771F881F991F1A940C
:1020000069F760957095809590959B01AC01BD0135
:08201000CF010895F894FFCF01
:0820180000E1000000000800D7
:00000001FF
